:100000000C942A000C9447000C9447000C94470071
:100010000C9447000C9447000C9447000C94470044
:100020000C9447000C9447000C9447000C94470034
:100030000C9447000C9447000C9447000C94470024
:100040000C9447000C9447000C9447000C94470014
:100050000C94470011241FBECFE5D8E0DEBFCDBF12
:1000600010E0A0E6B0E0E0E9F6E002C005900D92F5
:10007000AA37B107D9F720E0AAE7B0E001C01D9286
:10008000AC37B207E1F70E94D0020C9446030C94FF
:10009000000020B330E0A90102C0559547958A952C
:1000A000E2F7CA0181709927089592B321E030E008
:1000B00002C0220F331F8A95E2F7292B22BB089535
:1000C00092B321E030E002C0220F331F8A95E2F79D
:1000D0002095292322BB089580E090E00E945500DE
:1000E00081E090E00E94550082E090E00E9455007F
:1000F00084E090E00E944900892B09F44BC080E025
:1001000090E00E94550081E090E00E94600082E053
:1001100090E00E94600084E090E00E944900892BFA
:1001200009F02DC18FE097E20197F1F700C00000C0
:1001300080E090E00E94600081E090E00E94550025
:1001400082E090E00E94600084E090E00E9449001C
:10015000892B09F016C18FE097E20197F1F700C0F3
:10016000000080E090E00E94600081E090E00E944A
:10017000600082E090E00E94550084E090E00E94E0
:100180004900892B09F0FFC08FE097E20197F1F752
:1001900000C0000085E090E00E944900892B09F42E
:1001A0004BC080E090E00E94550081E090E00E940A
:1001B000600082E090E00E94600085E090E00E9494
:1001C0004900892B09F0E1C08FE097E20197F1F730
:1001D00000C0000080E090E00E94600081E090E0BC
:1001E0000E94550082E090E00E94600085E090E06F
:1001F0000E944900892B09F0CAC08FE097E201975D
:10020000F1F700C0000080E090E00E94600081E013
:1002100090E00E94600082E090E00E94550085E03E
:1002200090E00E944900892B09F0B3C08FE097E26B
:100230000197F1F700C0000086E090E00E944900BD
:10024000892B09F44BC080E090E00E94550081E0CA
:1002500090E00E94600082E090E00E94600086E0F2
:1002600090E00E944900892B09F095C08FE097E249
:100270000197F1F700C0000080E090E00E9460006C
:1002800081E090E00E94550082E090E00E946000D2
:1002900086E090E00E944900892B09F07EC08FE043
:1002A00097E20197F1F700C0000080E090E00E9423
:1002B000600081E090E00E94600082E090E00E9497
:1002C000550086E090E00E944900892B09F067C044
:1002D0008FE097E20197F1F700C0000087E090E01F
:1002E0000E944900892B09F4F7CE80E090E00E943B
:1002F000550081E090E00E94600082E090E00E9462
:10030000600087E090E00E944900892B09F049C015
:100310008FE097E20197F1F700C0000080E090E0E5
:100320000E94600081E090E00E94550082E090E031
:100330000E94600087E090E00E944900892B99F5B7
:100340008FE097E20197F1F700C0000080E090E0B5
:100350000E94600081E090E00E94600082E090E0F6
:100360000E94550087E090E00E944900892BE9F443
:100370008FE097E20197F1F700C00000ADCE81E376
:10038000089582E3089583E3089584E3089585E35F
:10039000089586E3089587E3089588E3089589E33F
:1003A00008958AE2089580E3089583E2089585BB65
:1003B000AB98AA9A2FEF81EE94E0215080409040B4
:1003C000E1F700C00000AA98089595B39F7095BB0F
:1003D00095B3282F207F922B95BBAB98AA9A35E036
:1003E0003A95F1F70000AA98EFE1F3E03197F1F7C1
:1003F00000C0000095B39F7095BB25B3F0E18F9FBF
:10040000C0011124822B85BBAB98AA9A35E03A959E
:10041000F1F70000AA988FE39FE10197F1F700C080
:10042000000008950497A9F480EF84BB84B38C6026
:1004300084BB88E20E94D7018CE00E94E50181E044
:100440000E94E50186E00E94E5018EE00E94E50140
:1004500008958FEF84BB84B38C6084BB88E30E94D3
:10046000D7018CE00E94D70181E00E94D70186E08D
:100470000E94D7018EE00E94D701089595B39F7026
:1004800095BB95B3282F207F922B95BBAB9AAA9A48
:100490002FEF31EE94E0215030409040E1F700C062
:1004A0000000AA9895B39F7095BB25B330E1839F58
:1004B000C0011124822B85BBAB9AAA9A8FEF91EED3
:1004C00024E0815090402040E1F700C00000AA984D
:1004D00008950F931F93CF93DF93FC012081211187
:1004E00011C03FC00031110581F480EC0E94E5018C
:1004F00080917A0090917B00019690937B0080938D
:100500007A0003C0EC0100E010E085B38F7085BB7A
:1005100095B38881807F892B85BBAB9AAA9AF5E039
:10052000FA95F1F70000AA988FE193E00197F1F7AF
:1005300000C0000085B38F7085BB85B39991E0E161
:100540009E9F90011124282B25BBAB9AAA9AF5E017
:10055000FA95F1F70000AA980F5F1F4F888181116B
:10056000C1CFDF91CF911F910F9108952FEF8BE2B3
:1005700091E0215080409040E1F700C0000081E010
:100580000E94E5012FEF8BE291E0215080409040E6
:10059000E1F700C0000010927B0010927A000895ED
:1005A000CF93DF93CDB7DEB72A970FB6F894DEBFAF
:1005B0000FBECDBF81B3876081BB84E090E00E9415
:1005C00012022FEF31EE44E0215030404040E1F77D
:1005D00000C00000A09AA89A85E0E0E6F0E0DE0105
:1005E000169601900D928A95E1F7CE0101967C0155
:1005F00000E010E015C00E946C00F70180838AE2E1
:100600000E943E02FFEF23EC39E0F15020403040E1
:10061000E1F700C000000F5F1F4F4FEFE41AF40A2C
:100620000530110544F3EFEFF0E722E0E150F04030
:100630002040E1F700C000000530110561F745E0FA
:1006400050E0BE016A5F7F4FCE0101960E943803E1
:10065000892B39F40E94B60285E690E00E94690277
:10066000DACF0E94B6028FE690E00E946902D3CFF3
:10067000FB01DC014150504030F08D910190801918
:1006800019F40020B9F7881B990B0895F894FFCF4F
:100690003132333435706173736564202121006613
:0A06A00061696C6564207878000041
:00000001FF
